{
  "_format": "hh-sol-artifact-1",
  "contractName": "WorldTicket",
  "sourceName": "contracts/Ticket.sol",
  "abi": [
    {
      "inputs": [
        {
          "internalType": "contract IWorldID",
          "name": "_worldId",
          "type": "address"
        },
        {
          "internalType": "string",
          "name": "_appId",
          "type": "string"
        },
        {
          "internalType": "string",
          "name": "_actionId",
          "type": "string"
        }
      ],
      "stateMutability": "nonpayable",
      "type": "constructor"
    },
    {
      "inputs": [],
      "name": "InvalidNullifier",
      "type": "error"
    },
    {
      "anonymous": false,
      "inputs": [
        {
          "indexed": true,
          "internalType": "address",
          "name": "owner",
          "type": "address"
        },
        {
          "indexed": true,
          "internalType": "address",
          "name": "approved",
          "type": "address"
        },
        {
          "indexed": true,
          "internalType": "uint256",
          "name": "tokenId",
          "type": "uint256"
        }
      ],
      "name": "Approval",
      "type": "event"
    },
    {
      "anonymous": false,
      "inputs": [
        {
          "indexed": true,
          "internalType": "address",
          "name": "owner",
          "type": "address"
        },
        {
          "indexed": true,
          "internalType": "address",
          "name": "operator",
          "type": "address"
        },
        {
          "indexed": false,
          "internalType": "bool",
          "name": "approved",
          "type": "bool"
        }
      ],
      "name": "ApprovalForAll",
      "type": "event"
    },
    {
      "anonymous": false,
      "inputs": [
        {
          "indexed": true,
          "internalType": "address",
          "name": "_to",
          "type": "address"
        },
        {
          "indexed": true,
          "internalType": "uint256",
          "name": "_tokenId",
          "type": "uint256"
        }
      ],
      "name": "Mint",
      "type": "event"
    },
    {
      "anonymous": false,
      "inputs": [
        {
          "indexed": true,
          "internalType": "address",
          "name": "from",
          "type": "address"
        },
        {
          "indexed": true,
          "internalType": "address",
          "name": "to",
          "type": "address"
        },
        {
          "indexed": true,
          "internalType": "uint256",
          "name": "tokenId",
          "type": "uint256"
        }
      ],
      "name": "Transfer",
      "type": "event"
    },
    {
      "inputs": [
        {
          "internalType": "address",
          "name": "to",
          "type": "address"
        },
        {
          "internalType": "uint256",
          "name": "tokenId",
          "type": "uint256"
        }
      ],
      "name": "approve",
      "outputs": [],
      "stateMutability": "nonpayable",
      "type": "function"
    },
    {
      "inputs": [
        {
          "internalType": "address",
          "name": "owner",
          "type": "address"
        }
      ],
      "name": "balanceOf",
      "outputs": [
        {
          "internalType": "uint256",
          "name": "",
          "type": "uint256"
        }
      ],
      "stateMutability": "view",
      "type": "function"
    },
    {
      "inputs": [
        {
          "internalType": "address",
          "name": "_signal",
          "type": "address"
        },
        {
          "internalType": "uint256",
          "name": "_root",
          "type": "uint256"
        },
        {
          "internalType": "uint256",
          "name": "_nullifierHash",
          "type": "uint256"
        },
        {
          "internalType": "uint256[8]",
          "name": "_proof",
          "type": "uint256[8]"
        },
        {
          "internalType": "address",
          "name": "_to",
          "type": "address"
        }
      ],
      "name": "buy",
      "outputs": [],
      "stateMutability": "payable",
      "type": "function"
    },
    {
      "inputs": [
        {
          "internalType": "uint256",
          "name": "tokenId",
          "type": "uint256"
        }
      ],
      "name": "getApproved",
      "outputs": [
        {
          "internalType": "address",
          "name": "",
          "type": "address"
        }
      ],
      "stateMutability": "view",
      "type": "function"
    },
    {
      "inputs": [
        {
          "internalType": "address",
          "name": "owner",
          "type": "address"
        },
        {
          "internalType": "address",
          "name": "operator",
          "type": "address"
        }
      ],
      "name": "isApprovedForAll",
      "outputs": [
        {
          "internalType": "bool",
          "name": "",
          "type": "bool"
        }
      ],
      "stateMutability": "view",
      "type": "function"
    },
    {
      "inputs": [
        {
          "internalType": "address",
          "name": "_signal",
          "type": "address"
        },
        {
          "internalType": "uint256",
          "name": "_root",
          "type": "uint256"
        },
        {
          "internalType": "uint256",
          "name": "_nullifierHash",
          "type": "uint256"
        },
        {
          "internalType": "uint256[8]",
          "name": "_proof",
          "type": "uint256[8]"
        },
        {
          "internalType": "address",
          "name": "_to",
          "type": "address"
        }
      ],
      "name": "mint",
      "outputs": [],
      "stateMutability": "nonpayable",
      "type": "function"
    },
    {
      "inputs": [],
      "name": "name",
      "outputs": [
        {
          "internalType": "string",
          "name": "",
          "type": "string"
        }
      ],
      "stateMutability": "view",
      "type": "function"
    },
    {
      "inputs": [
        {
          "internalType": "uint256",
          "name": "tokenId",
          "type": "uint256"
        }
      ],
      "name": "ownerOf",
      "outputs": [
        {
          "internalType": "address",
          "name": "",
          "type": "address"
        }
      ],
      "stateMutability": "view",
      "type": "function"
    },
    {
      "inputs": [
        {
          "internalType": "address",
          "name": "from",
          "type": "address"
        },
        {
          "internalType": "address",
          "name": "to",
          "type": "address"
        },
        {
          "internalType": "uint256",
          "name": "tokenId",
          "type": "uint256"
        }
      ],
      "name": "safeTransferFrom",
      "outputs": [],
      "stateMutability": "nonpayable",
      "type": "function"
    },
    {
      "inputs": [
        {
          "internalType": "address",
          "name": "from",
          "type": "address"
        },
        {
          "internalType": "address",
          "name": "to",
          "type": "address"
        },
        {
          "internalType": "uint256",
          "name": "tokenId",
          "type": "uint256"
        },
        {
          "internalType": "bytes",
          "name": "data",
          "type": "bytes"
        }
      ],
      "name": "safeTransferFrom",
      "outputs": [],
      "stateMutability": "nonpayable",
      "type": "function"
    },
    {
      "inputs": [
        {
          "internalType": "address",
          "name": "_signal",
          "type": "address"
        },
        {
          "internalType": "uint256",
          "name": "_root",
          "type": "uint256"
        },
        {
          "internalType": "uint256",
          "name": "_nullifierHash",
          "type": "uint256"
        },
        {
          "internalType": "uint256[8]",
          "name": "_proof",
          "type": "uint256[8]"
        },
        {
          "internalType": "address",
          "name": "_to",
          "type": "address"
        }
      ],
      "name": "sell",
      "outputs": [],
      "stateMutability": "payable",
      "type": "function"
    },
    {
      "inputs": [
        {
          "internalType": "address",
          "name": "operator",
          "type": "address"
        },
        {
          "internalType": "bool",
          "name": "approved",
          "type": "bool"
        }
      ],
      "name": "setApprovalForAll",
      "outputs": [],
      "stateMutability": "nonpayable",
      "type": "function"
    },
    {
      "inputs": [
        {
          "internalType": "bytes4",
          "name": "interfaceId",
          "type": "bytes4"
        }
      ],
      "name": "supportsInterface",
      "outputs": [
        {
          "internalType": "bool",
          "name": "",
          "type": "bool"
        }
      ],
      "stateMutability": "view",
      "type": "function"
    },
    {
      "inputs": [],
      "name": "symbol",
      "outputs": [
        {
          "internalType": "string",
          "name": "",
          "type": "string"
        }
      ],
      "stateMutability": "view",
      "type": "function"
    },
    {
      "inputs": [],
      "name": "tokenId",
      "outputs": [
        {
          "internalType": "uint256",
          "name": "_value",
          "type": "uint256"
        }
      ],
      "stateMutability": "view",
      "type": "function"
    },
    {
      "inputs": [
        {
          "internalType": "uint256",
          "name": "_tokenId",
          "type": "uint256"
        }
      ],
      "name": "tokenURI",
      "outputs": [
        {
          "internalType": "string",
          "name": "",
          "type": "string"
        }
      ],
      "stateMutability": "view",
      "type": "function"
    },
    {
      "inputs": [
        {
          "internalType": "address",
          "name": "from",
          "type": "address"
        },
        {
          "internalType": "address",
          "name": "to",
          "type": "address"
        },
        {
          "internalType": "uint256",
          "name": "tokenId",
          "type": "uint256"
        }
      ],
      "name": "transferFrom",
      "outputs": [],
      "stateMutability": "nonpayable",
      "type": "function"
    },
    {
      "inputs": [
        {
          "internalType": "address",
          "name": "signal",
          "type": "address"
        },
        {
          "internalType": "uint256",
          "name": "root",
          "type": "uint256"
        },
        {
          "internalType": "uint256",
          "name": "nullifierHash",
          "type": "uint256"
        },
        {
          "internalType": "uint256[8]",
          "name": "proof",
          "type": "uint256[8]"
        }
      ],
      "name": "verify",
      "outputs": [],
      "stateMutability": "nonpayable",
      "type": "function"
    }
  ],
  "bytecode": "0x60e0604052600160c0908152503480156200001957600080fd5b506040516200332b3803806200332b83398181016040528101906200003f9190620003c9565b6040518060400160405280600b81526020017f576f726c645469636b65740000000000000000000000000000000000000000008152506040518060400160405280600381526020017f57544300000000000000000000000000000000000000000000000000000000008152508160009081620000bc9190620006ae565b508060019081620000ce9190620006ae565b5050508273ffffffffffffffffffffffffffffffffffffffff1660808173ffffffffffffffffffffffffffffffffffffffff1681525050620001746200014083604051602001620001209190620007d7565b6040516020818303038152906040526200018460201b62000eae1760201c565b826040516020016200015492919062000815565b6040516020818303038152906040526200018460201b62000eae1760201c565b60a08181525050505050620008a7565b60006008826040516020016200019b91906200088e565b6040516020818303038152906040528051906020012060001c901c9050919050565b6000604051905090565b600080fd5b600080fd5b600073ffffffffffffffffffffffffffffffffffffffff82169050919050565b6000620001fe82620001d1565b9050919050565b60006200021282620001f1565b9050919050565b620002248162000205565b81146200023057600080fd5b50565b600081519050620002448162000219565b92915050565b600080fd5b600080fd5b6000601f19601f8301169050919050565b7f4e487b7100000000000000000000000000000000000000000000000000000000600052604160045260246000fd5b6200029f8262000254565b810181811067ffffffffffffffff82111715620002c157620002c062000265565b5b80604052505050565b6000620002d6620001bd565b9050620002e4828262000294565b919050565b600067ffffffffffffffff82111562000307576200030662000265565b5b620003128262000254565b9050602081019050919050565b60005b838110156200033f57808201518184015260208101905062000322565b60008484015250505050565b6000620003626200035c84620002e9565b620002ca565b9050828152602081018484840111156200038157620003806200024f565b5b6200038e8482856200031f565b509392505050565b600082601f830112620003ae57620003ad6200024a565b5b8151620003c08482602086016200034b565b91505092915050565b600080600060608486031215620003e557620003e4620001c7565b5b6000620003f58682870162000233565b935050602084015167ffffffffffffffff811115620004195762000418620001cc565b5b620004278682870162000396565b925050604084015167ffffffffffffffff8111156200044b576200044a620001cc565b5b620004598682870162000396565b9150509250925092565b600081519050919050565b7f4e487b7100000000000000000000000000000000000000000000000000000000600052602260045260246000fd5b60006002820490506001821680620004b657607f821691505b602082108103620004cc57620004cb6200046e565b5b50919050565b60008190508160005260206000209050919050565b60006020601f8301049050919050565b600082821b905092915050565b600060088302620005367fffffffffffffffffffffffffffffffffffffffffffffffffffffffffffffffff82620004f7565b620005428683620004f7565b95508019841693508086168417925050509392505050565b6000819050919050565b6000819050919050565b60006200058f6200058962000583846200055a565b62000564565b6200055a565b9050919050565b6000819050919050565b620005ab836200056e565b620005c3620005ba8262000596565b84845462000504565b825550505050565b600090565b620005da620005cb565b620005e7818484620005a0565b505050565b5b818110156200060f5762000603600082620005d0565b600181019050620005ed565b5050565b601f8211156200065e576200062881620004d2565b6200063384620004e7565b8101602085101562000643578190505b6200065b6200065285620004e7565b830182620005ec565b50505b505050565b600082821c905092915050565b6000620006836000198460080262000663565b1980831691505092915050565b60006200069e838362000670565b9150826002028217905092915050565b620006b98262000463565b67ffffffffffffffff811115620006d557620006d462000265565b5b620006e182546200049d565b620006ee82828562000613565b600060209050601f83116001811462000726576000841562000711578287015190505b6200071d858262000690565b8655506200078d565b601f1984166200073686620004d2565b60005b82811015620007605784890151825560018201915060208501945060208101905062000739565b868310156200078057848901516200077c601f89168262000670565b8355505b6001600288020188555050505b505050505050565b600081905092915050565b6000620007ad8262000463565b620007b9818562000795565b9350620007cb8185602086016200031f565b80840191505092915050565b6000620007e58284620007a0565b915081905092915050565b6000819050919050565b6200080f62000809826200055a565b620007f0565b82525050565b6000620008238285620007fa565b602082019150620008358284620007a0565b91508190509392505050565b600081519050919050565b600081905092915050565b6000620008648262000841565b6200087081856200084c565b9350620008828185602086016200031f565b80840191505092915050565b60006200089c828462000857565b915081905092915050565b60805160a05160c051612a2a6200090160003960008181610770015281816108fc0152610acb0152600081816107ba015281816109460152610b15015260008181610733015281816108bf0152610a8e0152612a2a6000f3fe6080604052600436106101095760003560e01c806342842e0e1161009557806395d89b411161006457806395d89b411461035d578063a22cb46514610388578063b88d4fde146103b1578063c87b56dd146103da578063e985e9c51461041757610109565b806342842e0e1461029e5780634e3b2083146102c75780636352211e146102e357806370a082311461032057610109565b806317d70f7c116100dc57806317d70f7c146101dc5780631e6ab5331461020757806323b872dd1461023057806327a3a55914610259578063387e32011461027557610109565b806301ffc9a71461010e57806306fdde031461014b578063081812fc14610176578063095ea7b3146101b3575b600080fd5b34801561011a57600080fd5b5061013560048036038101906101309190611b0b565b610454565b6040516101429190611b53565b60405180910390f35b34801561015757600080fd5b50610160610536565b60405161016d9190611bfe565b60405180910390f35b34801561018257600080fd5b5061019d60048036038101906101989190611c56565b6105c8565b6040516101aa9190611cc4565b60405180910390f35b3480156101bf57600080fd5b506101da60048036038101906101d59190611d0b565b61060e565b005b3480156101e857600080fd5b506101f1610725565b6040516101fe9190611d5a565b60405180910390f35b34801561021357600080fd5b5061022e60048036038101906102299190611d9c565b610731565b005b34801561023c57600080fd5b5061025760048036038101906102529190611e04565b61085d565b005b610273600480360381019061026e9190611e57565b6108bd565b005b34801561028157600080fd5b5061029c60048036038101906102979190611e57565b6109f2565b005b3480156102aa57600080fd5b506102c560048036038101906102c09190611e04565b610a6c565b005b6102e160048036038101906102dc9190611e57565b610a8c565b005b3480156102ef57600080fd5b5061030a60048036038101906103059190611c56565b610bc1565b6040516103179190611cc4565b60405180910390f35b34801561032c57600080fd5b5061034760048036038101906103429190611ed4565b610c47565b6040516103549190611d5a565b60405180910390f35b34801561036957600080fd5b50610372610cfe565b60405161037f9190611bfe565b60405180910390f35b34801561039457600080fd5b506103af60048036038101906103aa9190611f2d565b610d90565b005b3480156103bd57600080fd5b506103d860048036038101906103d391906120a2565b610da6565b005b3480156103e657600080fd5b5061040160048036038101906103fc9190611c56565b610e08565b60405161040e9190611bfe565b60405180910390f35b34801561042357600080fd5b5061043e60048036038101906104399190612125565b610e1a565b60405161044b9190611b53565b60405180910390f35b60007f80ac58cd000000000000000000000000000000000000000000000000000000007bffffffffffffffffffffffffffffffffffffffffffffffffffffffff1916827bffffffffffffffffffffffffffffffffffffffffffffffffffffffff1916148061051f57507f5b5e139f000000000000000000000000000000000000000000000000000000007bffffffffffffffffffffffffffffffffffffffffffffffffffffffff1916827bffffffffffffffffffffffffffffffffffffffffffffffffffffffff1916145b8061052f575061052e82610ee5565b5b9050919050565b60606000805461054590612194565b80601f016020809104026020016040519081016040528092919081815260200182805461057190612194565b80156105be5780601f10610593576101008083540402835291602001916105be565b820191906000526020600020905b8154815290600101906020018083116105a157829003601f168201915b5050505050905090565b60006105d382610f4f565b6004600083815260200190815260200160002060009054906101000a900473ffffffffffffffffffffffffffffffffffffffff169050919050565b600061061982610bc1565b90508073ffffffffffffffffffffffffffffffffffffffff168373ffffffffffffffffffffffffffffffffffffffff1603610689576040517f08c379a000000000000000000000000000000000000000000000000000000000815260040161068090612237565b60405180910390fd5b8073ffffffffffffffffffffffffffffffffffffffff166106a8610f9a565b73ffffffffffffffffffffffffffffffffffffffff1614806106d757506106d6816106d1610f9a565b610e1a565b5b610716576040517f08c379a000000000000000000000000000000000000000000000000000000000815260040161070d906122c9565b60405180910390fd5b6107208383610fa2565b505050565b60068060000154905081565b7f000000000000000000000000000000000000000000000000000000000000000073ffffffffffffffffffffffffffffffffffffffff16633bc778e3847f00000000000000000000000000000000000000000000000000000000000000006107b7886040516020016107a39190612331565b604051602081830303815290604052610eae565b867f0000000000000000000000000000000000000000000000000000000000000000876040518763ffffffff1660e01b81526004016107fb96959493929190612366565b60006040518083038186803b15801561081357600080fd5b505afa158015610827573d6000803e3d6000fd5b5050505060016007600084815260200190815260200160002060006101000a81548160ff02191690831515021790555050505050565b61086e610868610f9a565b8261105b565b6108ad576040517f08c379a00000000000000000000000000000000000000000000000000000000081526004016108a49061243a565b60405180910390fd5b6108b88383836110f0565b505050565b7f000000000000000000000000000000000000000000000000000000000000000073ffffffffffffffffffffffffffffffffffffffff16633bc778e3857f00000000000000000000000000000000000000000000000000000000000000006109438960405160200161092f9190612331565b604051602081830303815290604052610eae565b877f0000000000000000000000000000000000000000000000000000000000000000886040518763ffffffff1660e01b815260040161098796959493929190612366565b60006040518083038186803b15801561099f57600080fd5b505afa1580156109b3573d6000803e3d6000fd5b505050506040517f08c379a00000000000000000000000000000000000000000000000000000000081526004016109e9906124a6565b60405180910390fd5b6109fe85858585610731565b6000610a0a60066113e9565b9050610a1682826113f7565b610a206006611415565b808273ffffffffffffffffffffffffffffffffffffffff167f0f6798a560793a54c3bcfe86a93cde1e73087d944c0ea20544137d412139688560405160405180910390a3505050505050565b610a8783838360405180602001604052806000815250610da6565b505050565b7f000000000000000000000000000000000000000000000000000000000000000073ffffffffffffffffffffffffffffffffffffffff16633bc778e3857f0000000000000000000000000000000000000000000000000000000000000000610b1289604051602001610afe9190612331565b604051602081830303815290604052610eae565b877f0000000000000000000000000000000000000000000000000000000000000000886040518763ffffffff1660e01b8152600401610b5696959493929190612366565b60006040518083038186803b158015610b6e57600080fd5b505afa158015610b82573d6000803e3d6000fd5b505050506040517f08c379a0000000000000000000000000000000000000000000000000000000008152600401610bb8906124a6565b60405180910390fd5b600080610bcd8361142b565b9050600073ffffffffffffffffffffffffffffffffffffffff168173ffffffffffffffffffffffffffffffffffffffff1603610c3e576040517f08c379a0000000000000000000000000000000000000000000000000000000008152600401610c3590612512565b60405180910390fd5b80915050919050565b60008073ffffffffffffffffffffffffffffffffffffffff168273ffffffffffffffffffffffffffffffffffffffff1603610cb7576040517f08c379a0000000000000000000000000000000000000000000000000000000008152600401610cae906125a4565b60405180910390fd5b600360008373ffffffffffffffffffffffffffffffffffffffff1673ffffffffffffffffffffffffffffffffffffffff168152602001908152602001600020549050919050565b606060018054610d0d90612194565b80601f0160208091040260200160405190810160405280929190818152602001828054610d3990612194565b8015610d865780601f10610d5b57610100808354040283529160200191610d86565b820191906000526020600020905b815481529060010190602001808311610d6957829003601f168201915b5050505050905090565b610da2610d9b610f9a565b8383611468565b5050565b610db7610db1610f9a565b8361105b565b610df6576040517f08c379a0000000000000000000000000000000000000000000000000000000008152600401610ded9061243a565b60405180910390fd5b610e02848484846115d4565b50505050565b6060610e1382610e08565b9050919050565b6000600560008473ffffffffffffffffffffffffffffffffffffffff1673ffffffffffffffffffffffffffffffffffffffff16815260200190815260200160002060008373ffffffffffffffffffffffffffffffffffffffff1673ffffffffffffffffffffffffffffffffffffffff16815260200190815260200160002060009054906101000a900460ff16905092915050565b6000600882604051602001610ec3919061260b565b6040516020818303038152906040528051906020012060001c901c9050919050565b60007f01ffc9a7000000000000000000000000000000000000000000000000000000007bffffffffffffffffffffffffffffffffffffffffffffffffffffffff1916827bffffffffffffffffffffffffffffffffffffffffffffffffffffffff1916149050919050565b610f5881611630565b610f97576040517f08c379a0000000000000000000000000000000000000000000000000000000008152600401610f8e90612512565b60405180910390fd5b50565b600033905090565b816004600083815260200190815260200160002060006101000a81548173ffffffffffffffffffffffffffffffffffffffff021916908373ffffffffffffffffffffffffffffffffffffffff160217905550808273ffffffffffffffffffffffffffffffffffffffff1661101583610bc1565b73ffffffffffffffffffffffffffffffffffffffff167f8c5be1e5ebec7d5bd14f71427d1e84f3dd0314c0f7b2291e5b200ac8c7c3b92560405160405180910390a45050565b60008061106783610bc1565b90508073ffffffffffffffffffffffffffffffffffffffff168473ffffffffffffffffffffffffffffffffffffffff1614806110a957506110a88185610e1a565b5b806110e757508373ffffffffffffffffffffffffffffffffffffffff166110cf846105c8565b73ffffffffffffffffffffffffffffffffffffffff16145b91505092915050565b8273ffffffffffffffffffffffffffffffffffffffff1661111082610bc1565b73ffffffffffffffffffffffffffffffffffffffff1614611166576040517f08c379a000000000000000000000000000000000000000000000000000000000815260040161115d90612694565b60405180910390fd5b600073ffffffffffffffffffffffffffffffffffffffff168273ffffffffffffffffffffffffffffffffffffffff16036111d5576040517f08c379a00000000000000000000000000000000000000000000000000000000081526004016111cc90612726565b60405180910390fd5b6111e28383836001611671565b8273ffffffffffffffffffffffffffffffffffffffff1661120282610bc1565b73ffffffffffffffffffffffffffffffffffffffff1614611258576040517f08c379a000000000000000000000000000000000000000000000000000000000815260040161124f90612694565b60405180910390fd5b6004600082815260200190815260200160002060006101000a81549073ffffffffffffffffffffffffffffffffffffffff02191690556001600360008573ffffffffffffffffffffffffffffffffffffffff1673ffffffffffffffffffffffffffffffffffffffff168152602001908152602001600020600082825403925050819055506001600360008473ffffffffffffffffffffffffffffffffffffffff1673ffffffffffffffffffffffffffffffffffffffff16815260200190815260200160002060008282540192505081905550816002600083815260200190815260200160002060006101000a81548173ffffffffffffffffffffffffffffffffffffffff021916908373ffffffffffffffffffffffffffffffffffffffff160217905550808273ffffffffffffffffffffffffffffffffffffffff168473ffffffffffffffffffffffffffffffffffffffff167fddf252ad1be2c89b69c2b068fc378daa952ba7f163c4a11628f55a4df523b3ef60405160405180910390a46113e48383836001611677565b505050565b600081600001549050919050565b61141182826040518060200160405280600081525061167d565b5050565b6001816000016000828254019250508190555050565b60006002600083815260200190815260200160002060009054906101000a900473ffffffffffffffffffffffffffffffffffffffff169050919050565b8173ffffffffffffffffffffffffffffffffffffffff168373ffffffffffffffffffffffffffffffffffffffff16036114d6576040517f08c379a00000000000000000000000000000000000000000000000000000000081526004016114cd90612792565b60405180910390fd5b80600560008573ffffffffffffffffffffffffffffffffffffffff1673ffffffffffffffffffffffffffffffffffffffff16815260200190815260200160002060008473ffffffffffffffffffffffffffffffffffffffff1673ffffffffffffffffffffffffffffffffffffffff16815260200190815260200160002060006101000a81548160ff0219169083151502179055508173ffffffffffffffffffffffffffffffffffffffff168373ffffffffffffffffffffffffffffffffffffffff167f17307eab39ab6107e8899845ad3d59bd9653f200f220920489ca2b5937696c31836040516115c79190611b53565b60405180910390a3505050565b6115df8484846110f0565b6115eb848484846116d8565b61162a576040517f08c379a000000000000000000000000000000000000000000000000000000000815260040161162190612824565b60405180910390fd5b50505050565b60008073ffffffffffffffffffffffffffffffffffffffff166116528361142b565b73ffffffffffffffffffffffffffffffffffffffff1614159050919050565b50505050565b50505050565b611687838361185f565b61169460008484846116d8565b6116d3576040517f08c379a00000000000000000000000000000000000000000000000000000000081526004016116ca90612824565b60405180910390fd5b505050565b60006116f98473ffffffffffffffffffffffffffffffffffffffff16611a7c565b15611852578373ffffffffffffffffffffffffffffffffffffffff1663150b7a02611722610f9a565b8786866040518563ffffffff1660e01b8152600401611744949392919061288e565b6020604051808303816000875af192505050801561178057506040513d601f19601f8201168201806040525081019061177d91906128ef565b60015b611802573d80600081146117b0576040519150601f19603f3d011682016040523d82523d6000602084013e6117b5565b606091505b5060008151036117fa576040517f08c379a00000000000000000000000000000000000000000000000000000000081526004016117f190612824565b60405180910390fd5b805181602001fd5b63150b7a0260e01b7bffffffffffffffffffffffffffffffffffffffffffffffffffffffff1916817bffffffffffffffffffffffffffffffffffffffffffffffffffffffff191614915050611857565b600190505b949350505050565b600073ffffffffffffffffffffffffffffffffffffffff168273ffffffffffffffffffffffffffffffffffffffff16036118ce576040517f08c379a00000000000000000000000000000000000000000000000000000000081526004016118c590612968565b60405180910390fd5b6118d781611630565b15611917576040517f08c379a000000000000000000000000000000000000000000000000000000000815260040161190e906129d4565b60405180910390fd5b611925600083836001611671565b61192e81611630565b1561196e576040517f08c379a0000000000000000000000000000000000000000000000000000000008152600401611965906129d4565b60405180910390fd5b6001600360008473ffffffffffffffffffffffffffffffffffffffff1673ffffffffffffffffffffffffffffffffffffffff16815260200190815260200160002060008282540192505081905550816002600083815260200190815260200160002060006101000a81548173ffffffffffffffffffffffffffffffffffffffff021916908373ffffffffffffffffffffffffffffffffffffffff160217905550808273ffffffffffffffffffffffffffffffffffffffff16600073ffffffffffffffffffffffffffffffffffffffff167fddf252ad1be2c89b69c2b068fc378daa952ba7f163c4a11628f55a4df523b3ef60405160405180910390a4611a78600083836001611677565b5050565b6000808273ffffffffffffffffffffffffffffffffffffffff163b119050919050565b6000604051905090565b600080fd5b600080fd5b60007fffffffff0000000000000000000000000000000000000000000000000000000082169050919050565b611ae881611ab3565b8114611af357600080fd5b50565b600081359050611b0581611adf565b92915050565b600060208284031215611b2157611b20611aa9565b5b6000611b2f84828501611af6565b91505092915050565b60008115159050919050565b611b4d81611b38565b82525050565b6000602082019050611b686000830184611b44565b92915050565b600081519050919050565b600082825260208201905092915050565b60005b83811015611ba8578082015181840152602081019050611b8d565b60008484015250505050565b6000601f19601f8301169050919050565b6000611bd082611b6e565b611bda8185611b79565b9350611bea818560208601611b8a565b611bf381611bb4565b840191505092915050565b60006020820190508181036000830152611c188184611bc5565b905092915050565b6000819050919050565b611c3381611c20565b8114611c3e57600080fd5b50565b600081359050611c5081611c2a565b92915050565b600060208284031215611c6c57611c6b611aa9565b5b6000611c7a84828501611c41565b91505092915050565b600073ffffffffffffffffffffffffffffffffffffffff82169050919050565b6000611cae82611c83565b9050919050565b611cbe81611ca3565b82525050565b6000602082019050611cd96000830184611cb5565b92915050565b611ce881611ca3565b8114611cf357600080fd5b50565b600081359050611d0581611cdf565b92915050565b60008060408385031215611d2257611d21611aa9565b5b6000611d3085828601611cf6565b9250506020611d4185828601611c41565b9150509250929050565b611d5481611c20565b82525050565b6000602082019050611d6f6000830184611d4b565b92915050565b600080fd5b600081905082602060080282011115611d9657611d95611d75565b5b92915050565b6000806000806101608587031215611db757611db6611aa9565b5b6000611dc587828801611cf6565b9450506020611dd687828801611c41565b9350506040611de787828801611c41565b9250506060611df887828801611d7a565b91505092959194509250565b600080600060608486031215611e1d57611e1c611aa9565b5b6000611e2b86828701611cf6565b9350506020611e3c86828701611cf6565b9250506040611e4d86828701611c41565b9150509250925092565b60008060008060006101808688031215611e7457611e73611aa9565b5b6000611e8288828901611cf6565b9550506020611e9388828901611c41565b9450506040611ea488828901611c41565b9350506060611eb588828901611d7a565b925050610160611ec788828901611cf6565b9150509295509295909350565b600060208284031215611eea57611ee9611aa9565b5b6000611ef884828501611cf6565b91505092915050565b611f0a81611b38565b8114611f1557600080fd5b50565b600081359050611f2781611f01565b92915050565b60008060408385031215611f4457611f43611aa9565b5b6000611f5285828601611cf6565b9250506020611f6385828601611f18565b9150509250929050565b600080fd5b600080fd5b7f4e487b7100000000000000000000000000000000000000000000000000000000600052604160045260246000fd5b611faf82611bb4565b810181811067ffffffffffffffff82111715611fce57611fcd611f77565b5b80604052505050565b6000611fe1611a9f565b9050611fed8282611fa6565b919050565b600067ffffffffffffffff82111561200d5761200c611f77565b5b61201682611bb4565b9050602081019050919050565b82818337600083830152505050565b600061204561204084611ff2565b611fd7565b90508281526020810184848401111561206157612060611f72565b5b61206c848285612023565b509392505050565b600082601f83011261208957612088611f6d565b5b8135612099848260208601612032565b91505092915050565b600080600080608085870312156120bc576120bb611aa9565b5b60006120ca87828801611cf6565b94505060206120db87828801611cf6565b93505060406120ec87828801611c41565b925050606085013567ffffffffffffffff81111561210d5761210c611aae565b5b61211987828801612074565b91505092959194509250565b6000806040838503121561213c5761213b611aa9565b5b600061214a85828601611cf6565b925050602061215b85828601611cf6565b9150509250929050565b7f4e487b7100000000000000000000000000000000000000000000000000000000600052602260045260246000fd5b600060028204905060018216806121ac57607f821691505b6020821081036121bf576121be612165565b5b50919050565b7f4552433732313a20617070726f76616c20746f2063757272656e74206f776e6560008201527f7200000000000000000000000000000000000000000000000000000000000000602082015250565b6000612221602183611b79565b915061222c826121c5565b604082019050919050565b6000602082019050818103600083015261225081612214565b9050919050565b7f4552433732313a20617070726f76652063616c6c6572206973206e6f7420746f60008201527f6b656e206f776e6572206f7220617070726f76656420666f7220616c6c000000602082015250565b60006122b3603d83611b79565b91506122be82612257565b604082019050919050565b600060208201905081810360008301526122e2816122a6565b9050919050565b60008160601b9050919050565b6000612301826122e9565b9050919050565b6000612313826122f6565b9050919050565b61232b61232682611ca3565b612308565b82525050565b600061233d828461231a565b60148201915081905092915050565b82818337505050565b612362610100838361234c565b5050565b60006101a08201905061237c6000830189611d4b565b6123896020830188611d4b565b6123966040830187611d4b565b6123a36060830186611d4b565b6123b06080830185611d4b565b6123bd60a0830184612355565b979650505050505050565b7f4552433732313a2063616c6c6572206973206e6f7420746f6b656e206f776e6560008201527f72206f7220617070726f76656400000000000000000000000000000000000000602082015250565b6000612424602d83611b79565b915061242f826123c8565b604082019050919050565b6000602082019050818103600083015261245381612417565b9050919050565b7f766572696669636174696f6e2073756363657373000000000000000000000000600082015250565b6000612490601483611b79565b915061249b8261245a565b602082019050919050565b600060208201905081810360008301526124bf81612483565b9050919050565b7f4552433732313a20696e76616c696420746f6b656e2049440000000000000000600082015250565b60006124fc601883611b79565b9150612507826124c6565b602082019050919050565b6000602082019050818103600083015261252b816124ef565b9050919050565b7f4552433732313a2061646472657373207a65726f206973206e6f74206120766160008201527f6c6964206f776e65720000000000000000000000000000000000000000000000602082015250565b600061258e602983611b79565b915061259982612532565b604082019050919050565b600060208201905081810360008301526125bd81612581565b9050919050565b600081519050919050565b600081905092915050565b60006125e5826125c4565b6125ef81856125cf565b93506125ff818560208601611b8a565b80840191505092915050565b600061261782846125da565b915081905092915050565b7f4552433732313a207472616e736665722066726f6d20696e636f72726563742060008201527f6f776e6572000000000000000000000000000000000000000000000000000000602082015250565b600061267e602583611b79565b915061268982612622565b604082019050919050565b600060208201905081810360008301526126ad81612671565b9050919050565b7f4552433732313a207472616e7366657220746f20746865207a65726f2061646460008201527f7265737300000000000000000000000000000000000000000000000000000000602082015250565b6000612710602483611b79565b915061271b826126b4565b604082019050919050565b6000602082019050818103600083015261273f81612703565b9050919050565b7f4552433732313a20617070726f766520746f2063616c6c657200000000000000600082015250565b600061277c601983611b79565b915061278782612746565b602082019050919050565b600060208201905081810360008301526127ab8161276f565b9050919050565b7f4552433732313a207472616e7366657220746f206e6f6e20455243373231526560008201527f63656976657220696d706c656d656e7465720000000000000000000000000000602082015250565b600061280e603283611b79565b9150612819826127b2565b604082019050919050565b6000602082019050818103600083015261283d81612801565b9050919050565b600082825260208201905092915050565b6000612860826125c4565b61286a8185612844565b935061287a818560208601611b8a565b61288381611bb4565b840191505092915050565b60006080820190506128a36000830187611cb5565b6128b06020830186611cb5565b6128bd6040830185611d4b565b81810360608301526128cf8184612855565b905095945050505050565b6000815190506128e981611adf565b92915050565b60006020828403121561290557612904611aa9565b5b6000612913848285016128da565b91505092915050565b7f4552433732313a206d696e7420746f20746865207a65726f2061646472657373600082015250565b6000612952602083611b79565b915061295d8261291c565b602082019050919050565b6000602082019050818103600083015261298181612945565b9050919050565b7f4552433732313a20746f6b656e20616c7265616479206d696e74656400000000600082015250565b60006129be601c83611b79565b91506129c982612988565b602082019050919050565b600060208201905081810360008301526129ed816129b1565b905091905056fea2646970667358221220e028e9ee21ec0b81ae4bba0697a8d2dafdbefd60544ec650572cc9fb8a83ab6464736f6c63430008120033",
  "linkReferences": {},
  "deployedLinkReferences": {}
}