{
    "_format": "hh-sol-artifact-1",
    "contractName": "WorldTicket",
    "sourceName": "contracts/Ticket.sol",
    "abi": [
        {
            "inputs": [
                {
                    "internalType": "contract IWorldID",
                    "name": "_worldId",
                    "type": "address"
                },
                {
                    "internalType": "string",
                    "name": "_appId",
                    "type": "string"
                },
                {
                    "internalType": "string",
                    "name": "_actionId",
                    "type": "string"
                }
            ],
            "stateMutability": "nonpayable",
            "type": "constructor"
        },
        {
            "inputs": [],
            "name": "InvalidNullifier",
            "type": "error"
        },
        {
            "anonymous": false,
            "inputs": [
                {
                    "indexed": true,
                    "internalType": "address",
                    "name": "owner",
                    "type": "address"
                },
                {
                    "indexed": true,
                    "internalType": "address",
                    "name": "approved",
                    "type": "address"
                },
                {
                    "indexed": true,
                    "internalType": "uint256",
                    "name": "tokenId",
                    "type": "uint256"
                }
            ],
            "name": "Approval",
            "type": "event"
        },
        {
            "anonymous": false,
            "inputs": [
                {
                    "indexed": true,
                    "internalType": "address",
                    "name": "owner",
                    "type": "address"
                },
                {
                    "indexed": true,
                    "internalType": "address",
                    "name": "operator",
                    "type": "address"
                },
                {
                    "indexed": false,
                    "internalType": "bool",
                    "name": "approved",
                    "type": "bool"
                }
            ],
            "name": "ApprovalForAll",
            "type": "event"
        },
        {
            "anonymous": false,
            "inputs": [
                {
                    "indexed": true,
                    "internalType": "address",
                    "name": "_to",
                    "type": "address"
                },
                {
                    "indexed": true,
                    "internalType": "uint256",
                    "name": "_tokenId",
                    "type": "uint256"
                }
            ],
            "name": "Mint",
            "type": "event"
        },
        {
            "anonymous": false,
            "inputs": [
                {
                    "indexed": true,
                    "internalType": "address",
                    "name": "from",
                    "type": "address"
                },
                {
                    "indexed": true,
                    "internalType": "address",
                    "name": "to",
                    "type": "address"
                },
                {
                    "indexed": true,
                    "internalType": "uint256",
                    "name": "tokenId",
                    "type": "uint256"
                }
            ],
            "name": "Transfer",
            "type": "event"
        },
        {
            "inputs": [
                {
                    "internalType": "address",
                    "name": "to",
                    "type": "address"
                },
                {
                    "internalType": "uint256",
                    "name": "tokenId",
                    "type": "uint256"
                }
            ],
            "name": "approve",
            "outputs": [],
            "stateMutability": "nonpayable",
            "type": "function"
        },
        {
            "inputs": [
                {
                    "internalType": "address",
                    "name": "owner",
                    "type": "address"
                }
            ],
            "name": "balanceOf",
            "outputs": [
                {
                    "internalType": "uint256",
                    "name": "",
                    "type": "uint256"
                }
            ],
            "stateMutability": "view",
            "type": "function"
        },
        {
            "inputs": [
                {
                    "internalType": "address",
                    "name": "_signal",
                    "type": "address"
                },
                {
                    "internalType": "uint256",
                    "name": "_root",
                    "type": "uint256"
                },
                {
                    "internalType": "uint256",
                    "name": "_nullifierHash",
                    "type": "uint256"
                },
                {
                    "internalType": "uint256[8]",
                    "name": "_proof",
                    "type": "uint256[8]"
                },
                {
                    "internalType": "address",
                    "name": "_to",
                    "type": "address"
                }
            ],
            "name": "buy",
            "outputs": [],
            "stateMutability": "payable",
            "type": "function"
        },
        {
            "inputs": [
                {
                    "internalType": "uint256",
                    "name": "tokenId",
                    "type": "uint256"
                }
            ],
            "name": "getApproved",
            "outputs": [
                {
                    "internalType": "address",
                    "name": "",
                    "type": "address"
                }
            ],
            "stateMutability": "view",
            "type": "function"
        },
        {
            "inputs": [
                {
                    "internalType": "address",
                    "name": "owner",
                    "type": "address"
                },
                {
                    "internalType": "address",
                    "name": "operator",
                    "type": "address"
                }
            ],
            "name": "isApprovedForAll",
            "outputs": [
                {
                    "internalType": "bool",
                    "name": "",
                    "type": "bool"
                }
            ],
            "stateMutability": "view",
            "type": "function"
        },
        {
            "inputs": [
                {
                    "internalType": "address",
                    "name": "_signal",
                    "type": "address"
                },
                {
                    "internalType": "uint256",
                    "name": "_root",
                    "type": "uint256"
                },
                {
                    "internalType": "uint256",
                    "name": "_nullifierHash",
                    "type": "uint256"
                },
                {
                    "internalType": "uint256[8]",
                    "name": "_proof",
                    "type": "uint256[8]"
                },
                {
                    "internalType": "address",
                    "name": "_to",
                    "type": "address"
                }
            ],
            "name": "mint",
            "outputs": [],
            "stateMutability": "nonpayable",
            "type": "function"
        },
        {
            "inputs": [],
            "name": "name",
            "outputs": [
                {
                    "internalType": "string",
                    "name": "",
                    "type": "string"
                }
            ],
            "stateMutability": "view",
            "type": "function"
        },
        {
            "inputs": [
                {
                    "internalType": "uint256",
                    "name": "tokenId",
                    "type": "uint256"
                }
            ],
            "name": "ownerOf",
            "outputs": [
                {
                    "internalType": "address",
                    "name": "",
                    "type": "address"
                }
            ],
            "stateMutability": "view",
            "type": "function"
        },
        {
            "inputs": [
                {
                    "internalType": "address",
                    "name": "from",
                    "type": "address"
                },
                {
                    "internalType": "address",
                    "name": "to",
                    "type": "address"
                },
                {
                    "internalType": "uint256",
                    "name": "tokenId",
                    "type": "uint256"
                }
            ],
            "name": "safeTransferFrom",
            "outputs": [],
            "stateMutability": "nonpayable",
            "type": "function"
        },
        {
            "inputs": [
                {
                    "internalType": "address",
                    "name": "from",
                    "type": "address"
                },
                {
                    "internalType": "address",
                    "name": "to",
                    "type": "address"
                },
                {
                    "internalType": "uint256",
                    "name": "tokenId",
                    "type": "uint256"
                },
                {
                    "internalType": "bytes",
                    "name": "data",
                    "type": "bytes"
                }
            ],
            "name": "safeTransferFrom",
            "outputs": [],
            "stateMutability": "nonpayable",
            "type": "function"
        },
        {
            "inputs": [
                {
                    "internalType": "address",
                    "name": "_signal",
                    "type": "address"
                },
                {
                    "internalType": "uint256",
                    "name": "_root",
                    "type": "uint256"
                },
                {
                    "internalType": "uint256",
                    "name": "_nullifierHash",
                    "type": "uint256"
                },
                {
                    "internalType": "uint256[8]",
                    "name": "_proof",
                    "type": "uint256[8]"
                },
                {
                    "internalType": "address",
                    "name": "_to",
                    "type": "address"
                }
            ],
            "name": "sell",
            "outputs": [],
            "stateMutability": "payable",
            "type": "function"
        },
        {
            "inputs": [
                {
                    "internalType": "address",
                    "name": "operator",
                    "type": "address"
                },
                {
                    "internalType": "bool",
                    "name": "approved",
                    "type": "bool"
                }
            ],
            "name": "setApprovalForAll",
            "outputs": [],
            "stateMutability": "nonpayable",
            "type": "function"
        },
        {
            "inputs": [
                {
                    "internalType": "bytes4",
                    "name": "interfaceId",
                    "type": "bytes4"
                }
            ],
            "name": "supportsInterface",
            "outputs": [
                {
                    "internalType": "bool",
                    "name": "",
                    "type": "bool"
                }
            ],
            "stateMutability": "view",
            "type": "function"
        },
        {
            "inputs": [],
            "name": "symbol",
            "outputs": [
                {
                    "internalType": "string",
                    "name": "",
                    "type": "string"
                }
            ],
            "stateMutability": "view",
            "type": "function"
        },
        {
            "inputs": [],
            "name": "tokenId",
            "outputs": [
                {
                    "internalType": "uint256",
                    "name": "_value",
                    "type": "uint256"
                }
            ],
            "stateMutability": "view",
            "type": "function"
        },
        {
            "inputs": [
                {
                    "internalType": "uint256",
                    "name": "_tokenId",
                    "type": "uint256"
                }
            ],
            "name": "tokenURI",
            "outputs": [
                {
                    "internalType": "string",
                    "name": "",
                    "type": "string"
                }
            ],
            "stateMutability": "view",
            "type": "function"
        },
        {
            "inputs": [
                {
                    "internalType": "address",
                    "name": "from",
                    "type": "address"
                },
                {
                    "internalType": "address",
                    "name": "to",
                    "type": "address"
                },
                {
                    "internalType": "uint256",
                    "name": "tokenId",
                    "type": "uint256"
                }
            ],
            "name": "transferFrom",
            "outputs": [],
            "stateMutability": "nonpayable",
            "type": "function"
        }
    ],
    "bytecode": "0x60e0604052600160c0908152503480156200001957600080fd5b50604051620032e7380380620032e783398181016040528101906200003f9190620003c9565b6040518060400160405280600b81526020017f576f726c645469636b65740000000000000000000000000000000000000000008152506040518060400160405280600381526020017f57544300000000000000000000000000000000000000000000000000000000008152508160009081620000bc9190620006ae565b508060019081620000ce9190620006ae565b5050508273ffffffffffffffffffffffffffffffffffffffff1660808173ffffffffffffffffffffffffffffffffffffffff1681525050620001746200014083604051602001620001209190620007d7565b6040516020818303038152906040526200018460201b62000d4e1760201c565b826040516020016200015492919062000815565b6040516020818303038152906040526200018460201b62000d4e1760201c565b60a08181525050505050620008a7565b60006008826040516020016200019b91906200088e565b6040516020818303038152906040528051906020012060001c901c9050919050565b6000604051905090565b600080fd5b600080fd5b600073ffffffffffffffffffffffffffffffffffffffff82169050919050565b6000620001fe82620001d1565b9050919050565b60006200021282620001f1565b9050919050565b620002248162000205565b81146200023057600080fd5b50565b600081519050620002448162000219565b92915050565b600080fd5b600080fd5b6000601f19601f8301169050919050565b7f4e487b7100000000000000000000000000000000000000000000000000000000600052604160045260246000fd5b6200029f8262000254565b810181811067ffffffffffffffff82111715620002c157620002c062000265565b5b80604052505050565b6000620002d6620001bd565b9050620002e4828262000294565b919050565b600067ffffffffffffffff82111562000307576200030662000265565b5b620003128262000254565b9050602081019050919050565b60005b838110156200033f57808201518184015260208101905062000322565b60008484015250505050565b6000620003626200035c84620002e9565b620002ca565b9050828152602081018484840111156200038157620003806200024f565b5b6200038e8482856200031f565b509392505050565b600082601f830112620003ae57620003ad6200024a565b5b8151620003c08482602086016200034b565b91505092915050565b600080600060608486031215620003e557620003e4620001c7565b5b6000620003f58682870162000233565b935050602084015167ffffffffffffffff811115620004195762000418620001cc565b5b620004278682870162000396565b925050604084015167ffffffffffffffff8111156200044b576200044a620001cc565b5b620004598682870162000396565b9150509250925092565b600081519050919050565b7f4e487b7100000000000000000000000000000000000000000000000000000000600052602260045260246000fd5b60006002820490506001821680620004b657607f821691505b602082108103620004cc57620004cb6200046e565b5b50919050565b60008190508160005260206000209050919050565b60006020601f8301049050919050565b600082821b905092915050565b600060088302620005367fffffffffffffffffffffffffffffffffffffffffffffffffffffffffffffffff82620004f7565b620005428683620004f7565b95508019841693508086168417925050509392505050565b6000819050919050565b6000819050919050565b60006200058f6200058962000583846200055a565b62000564565b6200055a565b9050919050565b6000819050919050565b620005ab836200056e565b620005c3620005ba8262000596565b84845462000504565b825550505050565b600090565b620005da620005cb565b620005e7818484620005a0565b505050565b5b818110156200060f5762000603600082620005d0565b600181019050620005ed565b5050565b601f8211156200065e576200062881620004d2565b6200063384620004e7565b8101602085101562000643578190505b6200065b6200065285620004e7565b830182620005ec565b50505b505050565b600082821c905092915050565b6000620006836000198460080262000663565b1980831691505092915050565b60006200069e838362000670565b9150826002028217905092915050565b620006b98262000463565b67ffffffffffffffff811115620006d557620006d462000265565b5b620006e182546200049d565b620006ee82828562000613565b600060209050601f83116001811462000726576000841562000711578287015190505b6200071d858262000690565b8655506200078d565b601f1984166200073686620004d2565b60005b82811015620007605784890151825560018201915060208501945060208101905062000739565b868310156200078057848901516200077c601f89168262000670565b8355505b6001600288020188555050505b505050505050565b600081905092915050565b6000620007ad8262000463565b620007b9818562000795565b9350620007cb8185602086016200031f565b80840191505092915050565b6000620007e58284620007a0565b915081905092915050565b6000819050919050565b6200080f62000809826200055a565b620007f0565b82525050565b6000620008238285620007fa565b602082019150620008358284620007a0565b91508190509392505050565b600081519050919050565b600081905092915050565b6000620008648262000841565b6200087081856200084c565b9350620008828185602086016200031f565b80840191505092915050565b60006200089c828462000857565b915081905092915050565b60805160a05160c0516129e6620009016000396000818161079c0152818161096b01526113200152600081816107e6015281816109b5015261136a01526000818161075f0152818161092e01526112e301526129e66000f3fe6080604052600436106100fe5760003560e01c806342842e0e1161009557806395d89b411161006457806395d89b4114610329578063a22cb46514610354578063b88d4fde1461037d578063c87b56dd146103a6578063e985e9c5146103e3576100fe565b806342842e0e1461026a5780634e3b2083146102935780636352211e146102af57806370a08231146102ec576100fe565b806317d70f7c116100d157806317d70f7c146101d157806323b872dd146101fc57806327a3a55914610225578063387e320114610241576100fe565b806301ffc9a71461010357806306fdde0314610140578063081812fc1461016b578063095ea7b3146101a8575b600080fd5b34801561010f57600080fd5b5061012a60048036038101906101259190611b2f565b610420565b6040516101379190611b77565b60405180910390f35b34801561014c57600080fd5b50610155610502565b6040516101629190611c22565b60405180910390f35b34801561017757600080fd5b50610192600480360381019061018d9190611c7a565b610594565b60405161019f9190611ce8565b60405180910390f35b3480156101b457600080fd5b506101cf60048036038101906101ca9190611d2f565b6105da565b005b3480156101dd57600080fd5b506101e66106f1565b6040516101f39190611d7e565b60405180910390f35b34801561020857600080fd5b50610223600480360381019061021e9190611d99565b6106fd565b005b61023f600480360381019061023a9190611e13565b61075d565b005b34801561024d57600080fd5b5061026860048036038101906102639190611e13565b610892565b005b34801561027657600080fd5b50610291600480360381019061028c9190611d99565b61090c565b005b6102ad60048036038101906102a89190611e13565b61092c565b005b3480156102bb57600080fd5b506102d660048036038101906102d19190611c7a565b610a61565b6040516102e39190611ce8565b60405180910390f35b3480156102f857600080fd5b50610313600480360381019061030e9190611e90565b610ae7565b6040516103209190611d7e565b60405180910390f35b34801561033557600080fd5b5061033e610b9e565b60405161034b9190611c22565b60405180910390f35b34801561036057600080fd5b5061037b60048036038101906103769190611ee9565b610c30565b005b34801561038957600080fd5b506103a4600480360381019061039f919061205e565b610c46565b005b3480156103b257600080fd5b506103cd60048036038101906103c89190611c7a565b610ca8565b6040516103da9190611c22565b60405180910390f35b3480156103ef57600080fd5b5061040a600480360381019061040591906120e1565b610cba565b6040516104179190611b77565b60405180910390f35b60007f80ac58cd000000000000000000000000000000000000000000000000000000007bffffffffffffffffffffffffffffffffffffffffffffffffffffffff1916827bffffffffffffffffffffffffffffffffffffffffffffffffffffffff191614806104eb57507f5b5e139f000000000000000000000000000000000000000000000000000000007bffffffffffffffffffffffffffffffffffffffffffffffffffffffff1916827bffffffffffffffffffffffffffffffffffffffffffffffffffffffff1916145b806104fb57506104fa82610d85565b5b9050919050565b60606000805461051190612150565b80601f016020809104026020016040519081016040528092919081815260200182805461053d90612150565b801561058a5780601f1061055f5761010080835404028352916020019161058a565b820191906000526020600020905b81548152906001019060200180831161056d57829003601f168201915b5050505050905090565b600061059f82610def565b6004600083815260200190815260200160002060009054906101000a900473ffffffffffffffffffffffffffffffffffffffff169050919050565b60006105e582610a61565b90508073ffffffffffffffffffffffffffffffffffffffff168373ffffffffffffffffffffffffffffffffffffffff1603610655576040517f08c379a000000000000000000000000000000000000000000000000000000000815260040161064c906121f3565b60405180910390fd5b8073ffffffffffffffffffffffffffffffffffffffff16610674610e3a565b73ffffffffffffffffffffffffffffffffffffffff1614806106a357506106a28161069d610e3a565b610cba565b5b6106e2576040517f08c379a00000000000000000000000000000000000000000000000000000000081526004016106d990612285565b60405180910390fd5b6106ec8383610e42565b505050565b60068060000154905081565b61070e610708610e3a565b82610efb565b61074d576040517f08c379a000000000000000000000000000000000000000000000000000000000815260040161074490612317565b60405180910390fd5b610758838383610f90565b505050565b7f000000000000000000000000000000000000000000000000000000000000000073ffffffffffffffffffffffffffffffffffffffff16633bc778e3857f00000000000000000000000000000000000000000000000000000000000000006107e3896040516020016107cf919061237f565b604051602081830303815290604052610d4e565b877f0000000000000000000000000000000000000000000000000000000000000000886040518763ffffffff1660e01b8152600401610827969594939291906123b4565b60006040518083038186803b15801561083f57600080fd5b505afa158015610853573d6000803e3d6000fd5b505050506040517f08c379a000000000000000000000000000000000000000000000000000000000815260040161088990612462565b60405180910390fd5b61089e85858585611289565b60006108aa600661140d565b90506108b6828261141b565b6108c06006611439565b808273ffffffffffffffffffffffffffffffffffffffff167f0f6798a560793a54c3bcfe86a93cde1e73087d944c0ea20544137d412139688560405160405180910390a3505050505050565b61092783838360405180602001604052806000815250610c46565b505050565b7f000000000000000000000000000000000000000000000000000000000000000073ffffffffffffffffffffffffffffffffffffffff16633bc778e3857f00000000000000000000000000000000000000000000000000000000000000006109b28960405160200161099e919061237f565b604051602081830303815290604052610d4e565b877f0000000000000000000000000000000000000000000000000000000000000000886040518763ffffffff1660e01b81526004016109f6969594939291906123b4565b60006040518083038186803b158015610a0e57600080fd5b505afa158015610a22573d6000803e3d6000fd5b505050506040517f08c379a0000000000000000000000000000000000000000000000000000000008152600401610a5890612462565b60405180910390fd5b600080610a6d8361144f565b9050600073ffffffffffffffffffffffffffffffffffffffff168173ffffffffffffffffffffffffffffffffffffffff1603610ade576040517f08c379a0000000000000000000000000000000000000000000000000000000008152600401610ad5906124ce565b60405180910390fd5b80915050919050565b60008073ffffffffffffffffffffffffffffffffffffffff168273ffffffffffffffffffffffffffffffffffffffff1603610b57576040517f08c379a0000000000000000000000000000000000000000000000000000000008152600401610b4e90612560565b60405180910390fd5b600360008373ffffffffffffffffffffffffffffffffffffffff1673ffffffffffffffffffffffffffffffffffffffff168152602001908152602001600020549050919050565b606060018054610bad90612150565b80601f0160208091040260200160405190810160405280929190818152602001828054610bd990612150565b8015610c265780601f10610bfb57610100808354040283529160200191610c26565b820191906000526020600020905b815481529060010190602001808311610c0957829003601f168201915b5050505050905090565b610c42610c3b610e3a565b838361148c565b5050565b610c57610c51610e3a565b83610efb565b610c96576040517f08c379a0000000000000000000000000000000000000000000000000000000008152600401610c8d90612317565b60405180910390fd5b610ca2848484846115f8565b50505050565b6060610cb382610ca8565b9050919050565b6000600560008473ffffffffffffffffffffffffffffffffffffffff1673ffffffffffffffffffffffffffffffffffffffff16815260200190815260200160002060008373ffffffffffffffffffffffffffffffffffffffff1673ffffffffffffffffffffffffffffffffffffffff16815260200190815260200160002060009054906101000a900460ff16905092915050565b6000600882604051602001610d6391906125c7565b6040516020818303038152906040528051906020012060001c901c9050919050565b60007f01ffc9a7000000000000000000000000000000000000000000000000000000007bffffffffffffffffffffffffffffffffffffffffffffffffffffffff1916827bffffffffffffffffffffffffffffffffffffffffffffffffffffffff1916149050919050565b610df881611654565b610e37576040517f08c379a0000000000000000000000000000000000000000000000000000000008152600401610e2e906124ce565b60405180910390fd5b50565b600033905090565b816004600083815260200190815260200160002060006101000a81548173ffffffffffffffffffffffffffffffffffffffff021916908373ffffffffffffffffffffffffffffffffffffffff160217905550808273ffffffffffffffffffffffffffffffffffffffff16610eb583610a61565b73ffffffffffffffffffffffffffffffffffffffff167f8c5be1e5ebec7d5bd14f71427d1e84f3dd0314c0f7b2291e5b200ac8c7c3b92560405160405180910390a45050565b600080610f0783610a61565b90508073ffffffffffffffffffffffffffffffffffffffff168473ffffffffffffffffffffffffffffffffffffffff161480610f495750610f488185610cba565b5b80610f8757508373ffffffffffffffffffffffffffffffffffffffff16610f6f84610594565b73ffffffffffffffffffffffffffffffffffffffff16145b91505092915050565b8273ffffffffffffffffffffffffffffffffffffffff16610fb082610a61565b73ffffffffffffffffffffffffffffffffffffffff1614611006576040517f08c379a0000000000000000000000000000000000000000000000000000000008152600401610ffd90612650565b60405180910390fd5b600073ffffffffffffffffffffffffffffffffffffffff168273ffffffffffffffffffffffffffffffffffffffff1603611075576040517f08c379a000000000000000000000000000000000000000000000000000000000815260040161106c906126e2565b60405180910390fd5b6110828383836001611695565b8273ffffffffffffffffffffffffffffffffffffffff166110a282610a61565b73ffffffffffffffffffffffffffffffffffffffff16146110f8576040517f08c379a00000000000000000000000000000000000000000000000000000000081526004016110ef90612650565b60405180910390fd5b6004600082815260200190815260200160002060006101000a81549073ffffffffffffffffffffffffffffffffffffffff02191690556001600360008573ffffffffffffffffffffffffffffffffffffffff1673ffffffffffffffffffffffffffffffffffffffff168152602001908152602001600020600082825403925050819055506001600360008473ffffffffffffffffffffffffffffffffffffffff1673ffffffffffffffffffffffffffffffffffffffff16815260200190815260200160002060008282540192505081905550816002600083815260200190815260200160002060006101000a81548173ffffffffffffffffffffffffffffffffffffffff021916908373ffffffffffffffffffffffffffffffffffffffff160217905550808273ffffffffffffffffffffffffffffffffffffffff168473ffffffffffffffffffffffffffffffffffffffff167fddf252ad1be2c89b69c2b068fc378daa952ba7f163c4a11628f55a4df523b3ef60405160405180910390a4611284838383600161169b565b505050565b6007600083815260200190815260200160002060009054906101000a900460ff16156112e1576040517f5d904cb200000000000000000000000000000000000000000000000000000000815260040160405180910390fd5b7f000000000000000000000000000000000000000000000000000000000000000073ffffffffffffffffffffffffffffffffffffffff16633bc778e3847f000000000000000000000000000000000000000000000000000000000000000061136788604051602001611353919061237f565b604051602081830303815290604052610d4e565b867f0000000000000000000000000000000000000000000000000000000000000000876040518763ffffffff1660e01b81526004016113ab969594939291906123b4565b60006040518083038186803b1580156113c357600080fd5b505afa1580156113d7573d6000803e3d6000fd5b5050505060016007600084815260200190815260200160002060006101000a81548160ff02191690831515021790555050505050565b600081600001549050919050565b6114358282604051806020016040528060008152506116a1565b5050565b6001816000016000828254019250508190555050565b60006002600083815260200190815260200160002060009054906101000a900473ffffffffffffffffffffffffffffffffffffffff169050919050565b8173ffffffffffffffffffffffffffffffffffffffff168373ffffffffffffffffffffffffffffffffffffffff16036114fa576040517f08c379a00000000000000000000000000000000000000000000000000000000081526004016114f19061274e565b60405180910390fd5b80600560008573ffffffffffffffffffffffffffffffffffffffff1673ffffffffffffffffffffffffffffffffffffffff16815260200190815260200160002060008473ffffffffffffffffffffffffffffffffffffffff1673ffffffffffffffffffffffffffffffffffffffff16815260200190815260200160002060006101000a81548160ff0219169083151502179055508173ffffffffffffffffffffffffffffffffffffffff168373ffffffffffffffffffffffffffffffffffffffff167f17307eab39ab6107e8899845ad3d59bd9653f200f220920489ca2b5937696c31836040516115eb9190611b77565b60405180910390a3505050565b611603848484610f90565b61160f848484846116fc565b61164e576040517f08c379a0000000000000000000000000000000000000000000000000000000008152600401611645906127e0565b60405180910390fd5b50505050565b60008073ffffffffffffffffffffffffffffffffffffffff166116768361144f565b73ffffffffffffffffffffffffffffffffffffffff1614159050919050565b50505050565b50505050565b6116ab8383611883565b6116b860008484846116fc565b6116f7576040517f08c379a00000000000000000000000000000000000000000000000000000000081526004016116ee906127e0565b60405180910390fd5b505050565b600061171d8473ffffffffffffffffffffffffffffffffffffffff16611aa0565b15611876578373ffffffffffffffffffffffffffffffffffffffff1663150b7a02611746610e3a565b8786866040518563ffffffff1660e01b8152600401611768949392919061284a565b6020604051808303816000875af19250505080156117a457506040513d601f19601f820116820180604052508101906117a191906128ab565b60015b611826573d80600081146117d4576040519150601f19603f3d011682016040523d82523d6000602084013e6117d9565b606091505b50600081510361181e576040517f08c379a0000000000000000000000000000000000000000000000000000000008152600401611815906127e0565b60405180910390fd5b805181602001fd5b63150b7a0260e01b7bffffffffffffffffffffffffffffffffffffffffffffffffffffffff1916817bffffffffffffffffffffffffffffffffffffffffffffffffffffffff19161491505061187b565b600190505b949350505050565b600073ffffffffffffffffffffffffffffffffffffffff168273ffffffffffffffffffffffffffffffffffffffff16036118f2576040517f08c379a00000000000000000000000000000000000000000000000000000000081526004016118e990612924565b60405180910390fd5b6118fb81611654565b1561193b576040517f08c379a000000000000000000000000000000000000000000000000000000000815260040161193290612990565b60405180910390fd5b611949600083836001611695565b61195281611654565b15611992576040517f08c379a000000000000000000000000000000000000000000000000000000000815260040161198990612990565b60405180910390fd5b6001600360008473ffffffffffffffffffffffffffffffffffffffff1673ffffffffffffffffffffffffffffffffffffffff16815260200190815260200160002060008282540192505081905550816002600083815260200190815260200160002060006101000a81548173ffffffffffffffffffffffffffffffffffffffff021916908373ffffffffffffffffffffffffffffffffffffffff160217905550808273ffffffffffffffffffffffffffffffffffffffff16600073ffffffffffffffffffffffffffffffffffffffff167fddf252ad1be2c89b69c2b068fc378daa952ba7f163c4a11628f55a4df523b3ef60405160405180910390a4611a9c60008383600161169b565b5050565b6000808273ffffffffffffffffffffffffffffffffffffffff163b119050919050565b6000604051905090565b600080fd5b600080fd5b60007fffffffff0000000000000000000000000000000000000000000000000000000082169050919050565b611b0c81611ad7565b8114611b1757600080fd5b50565b600081359050611b2981611b03565b92915050565b600060208284031215611b4557611b44611acd565b5b6000611b5384828501611b1a565b91505092915050565b60008115159050919050565b611b7181611b5c565b82525050565b6000602082019050611b8c6000830184611b68565b92915050565b600081519050919050565b600082825260208201905092915050565b60005b83811015611bcc578082015181840152602081019050611bb1565b60008484015250505050565b6000601f19601f8301169050919050565b6000611bf482611b92565b611bfe8185611b9d565b9350611c0e818560208601611bae565b611c1781611bd8565b840191505092915050565b60006020820190508181036000830152611c3c8184611be9565b905092915050565b6000819050919050565b611c5781611c44565b8114611c6257600080fd5b50565b600081359050611c7481611c4e565b92915050565b600060208284031215611c9057611c8f611acd565b5b6000611c9e84828501611c65565b91505092915050565b600073ffffffffffffffffffffffffffffffffffffffff82169050919050565b6000611cd282611ca7565b9050919050565b611ce281611cc7565b82525050565b6000602082019050611cfd6000830184611cd9565b92915050565b611d0c81611cc7565b8114611d1757600080fd5b50565b600081359050611d2981611d03565b92915050565b60008060408385031215611d4657611d45611acd565b5b6000611d5485828601611d1a565b9250506020611d6585828601611c65565b9150509250929050565b611d7881611c44565b82525050565b6000602082019050611d936000830184611d6f565b92915050565b600080600060608486031215611db257611db1611acd565b5b6000611dc086828701611d1a565b9350506020611dd186828701611d1a565b9250506040611de286828701611c65565b9150509250925092565b600080fd5b600081905082602060080282011115611e0d57611e0c611dec565b5b92915050565b60008060008060006101808688031215611e3057611e2f611acd565b5b6000611e3e88828901611d1a565b9550506020611e4f88828901611c65565b9450506040611e6088828901611c65565b9350506060611e7188828901611df1565b925050610160611e8388828901611d1a565b9150509295509295909350565b600060208284031215611ea657611ea5611acd565b5b6000611eb484828501611d1a565b91505092915050565b611ec681611b5c565b8114611ed157600080fd5b50565b600081359050611ee381611ebd565b92915050565b60008060408385031215611f0057611eff611acd565b5b6000611f0e85828601611d1a565b9250506020611f1f85828601611ed4565b9150509250929050565b600080fd5b600080fd5b7f4e487b7100000000000000000000000000000000000000000000000000000000600052604160045260246000fd5b611f6b82611bd8565b810181811067ffffffffffffffff82111715611f8a57611f89611f33565b5b80604052505050565b6000611f9d611ac3565b9050611fa98282611f62565b919050565b600067ffffffffffffffff821115611fc957611fc8611f33565b5b611fd282611bd8565b9050602081019050919050565b82818337600083830152505050565b6000612001611ffc84611fae565b611f93565b90508281526020810184848401111561201d5761201c611f2e565b5b612028848285611fdf565b509392505050565b600082601f83011261204557612044611f29565b5b8135612055848260208601611fee565b91505092915050565b6000806000806080858703121561207857612077611acd565b5b600061208687828801611d1a565b945050602061209787828801611d1a565b93505060406120a887828801611c65565b925050606085013567ffffffffffffffff8111156120c9576120c8611ad2565b5b6120d587828801612030565b91505092959194509250565b600080604083850312156120f8576120f7611acd565b5b600061210685828601611d1a565b925050602061211785828601611d1a565b9150509250929050565b7f4e487b7100000000000000000000000000000000000000000000000000000000600052602260045260246000fd5b6000600282049050600182168061216857607f821691505b60208210810361217b5761217a612121565b5b50919050565b7f4552433732313a20617070726f76616c20746f2063757272656e74206f776e6560008201527f7200000000000000000000000000000000000000000000000000000000000000602082015250565b60006121dd602183611b9d565b91506121e882612181565b604082019050919050565b6000602082019050818103600083015261220c816121d0565b9050919050565b7f4552433732313a20617070726f76652063616c6c6572206973206e6f7420746f60008201527f6b656e206f776e6572206f7220617070726f76656420666f7220616c6c000000602082015250565b600061226f603d83611b9d565b915061227a82612213565b604082019050919050565b6000602082019050818103600083015261229e81612262565b9050919050565b7f4552433732313a2063616c6c6572206973206e6f7420746f6b656e206f776e6560008201527f72206f7220617070726f76656400000000000000000000000000000000000000602082015250565b6000612301602d83611b9d565b915061230c826122a5565b604082019050919050565b60006020820190508181036000830152612330816122f4565b9050919050565b60008160601b9050919050565b600061234f82612337565b9050919050565b600061236182612344565b9050919050565b61237961237482611cc7565b612356565b82525050565b600061238b8284612368565b60148201915081905092915050565b82818337505050565b6123b0610100838361239a565b5050565b60006101a0820190506123ca6000830189611d6f565b6123d76020830188611d6f565b6123e46040830187611d6f565b6123f16060830186611d6f565b6123fe6080830185611d6f565b61240b60a08301846123a3565b979650505050505050565b7f766572696669636174696f6e2073756363657373000000000000000000000000600082015250565b600061244c601483611b9d565b915061245782612416565b602082019050919050565b6000602082019050818103600083015261247b8161243f565b9050919050565b7f4552433732313a20696e76616c696420746f6b656e2049440000000000000000600082015250565b60006124b8601883611b9d565b91506124c382612482565b602082019050919050565b600060208201905081810360008301526124e7816124ab565b9050919050565b7f4552433732313a2061646472657373207a65726f206973206e6f74206120766160008201527f6c6964206f776e65720000000000000000000000000000000000000000000000602082015250565b600061254a602983611b9d565b9150612555826124ee565b604082019050919050565b600060208201905081810360008301526125798161253d565b9050919050565b600081519050919050565b600081905092915050565b60006125a182612580565b6125ab818561258b565b93506125bb818560208601611bae565b80840191505092915050565b60006125d38284612596565b915081905092915050565b7f4552433732313a207472616e736665722066726f6d20696e636f72726563742060008201527f6f776e6572000000000000000000000000000000000000000000000000000000602082015250565b600061263a602583611b9d565b9150612645826125de565b604082019050919050565b600060208201905081810360008301526126698161262d565b9050919050565b7f4552433732313a207472616e7366657220746f20746865207a65726f2061646460008201527f7265737300000000000000000000000000000000000000000000000000000000602082015250565b60006126cc602483611b9d565b91506126d782612670565b604082019050919050565b600060208201905081810360008301526126fb816126bf565b9050919050565b7f4552433732313a20617070726f766520746f2063616c6c657200000000000000600082015250565b6000612738601983611b9d565b915061274382612702565b602082019050919050565b600060208201905081810360008301526127678161272b565b9050919050565b7f4552433732313a207472616e7366657220746f206e6f6e20455243373231526560008201527f63656976657220696d706c656d656e7465720000000000000000000000000000602082015250565b60006127ca603283611b9d565b91506127d58261276e565b604082019050919050565b600060208201905081810360008301526127f9816127bd565b9050919050565b600082825260208201905092915050565b600061281c82612580565b6128268185612800565b9350612836818560208601611bae565b61283f81611bd8565b840191505092915050565b600060808201905061285f6000830187611cd9565b61286c6020830186611cd9565b6128796040830185611d6f565b818103606083015261288b8184612811565b905095945050505050565b6000815190506128a581611b03565b92915050565b6000602082840312156128c1576128c0611acd565b5b60006128cf84828501612896565b91505092915050565b7f4552433732313a206d696e7420746f20746865207a65726f2061646472657373600082015250565b600061290e602083611b9d565b9150612919826128d8565b602082019050919050565b6000602082019050818103600083015261293d81612901565b9050919050565b7f4552433732313a20746f6b656e20616c7265616479206d696e74656400000000600082015250565b600061297a601c83611b9d565b915061298582612944565b602082019050919050565b600060208201905081810360008301526129a98161296d565b905091905056fea264697066735822122060a94db9eac77382e3269ac1ce842832f49e2e0f18ea224902f458108d35f21364736f6c63430008120033",
    "linkReferences": {},
    "deployedLinkReferences": {}
}